{
  "_format": "hh-sol-artifact-1",
  "contractName": "FilStore",
  "sourceName": "contracts/FilStore.sol",
  "abi": [
    {
      "inputs": [
        {
          "internalType": "address",
          "name": "initialOwner",
          "type": "address"
        }
      ],
      "stateMutability": "nonpayable",
      "type": "constructor"
    },
    {
      "inputs": [
        {
          "internalType": "address",
          "name": "sender",
          "type": "address"
        },
        {
          "internalType": "uint256",
          "name": "tokenId",
          "type": "uint256"
        },
        {
          "internalType": "address",
          "name": "owner",
          "type": "address"
        }
      ],
      "name": "ERC721IncorrectOwner",
      "type": "error"
    },
    {
      "inputs": [
        {
          "internalType": "address",
          "name": "operator",
          "type": "address"
        },
        {
          "internalType": "uint256",
          "name": "tokenId",
          "type": "uint256"
        }
      ],
      "name": "ERC721InsufficientApproval",
      "type": "error"
    },
    {
      "inputs": [
        {
          "internalType": "address",
          "name": "approver",
          "type": "address"
        }
      ],
      "name": "ERC721InvalidApprover",
      "type": "error"
    },
    {
      "inputs": [
        {
          "internalType": "address",
          "name": "operator",
          "type": "address"
        }
      ],
      "name": "ERC721InvalidOperator",
      "type": "error"
    },
    {
      "inputs": [
        {
          "internalType": "address",
          "name": "owner",
          "type": "address"
        }
      ],
      "name": "ERC721InvalidOwner",
      "type": "error"
    },
    {
      "inputs": [
        {
          "internalType": "address",
          "name": "receiver",
          "type": "address"
        }
      ],
      "name": "ERC721InvalidReceiver",
      "type": "error"
    },
    {
      "inputs": [
        {
          "internalType": "address",
          "name": "sender",
          "type": "address"
        }
      ],
      "name": "ERC721InvalidSender",
      "type": "error"
    },
    {
      "inputs": [
        {
          "internalType": "uint256",
          "name": "tokenId",
          "type": "uint256"
        }
      ],
      "name": "ERC721NonexistentToken",
      "type": "error"
    },
    {
      "inputs": [
        {
          "internalType": "address",
          "name": "owner",
          "type": "address"
        }
      ],
      "name": "OwnableInvalidOwner",
      "type": "error"
    },
    {
      "inputs": [
        {
          "internalType": "address",
          "name": "account",
          "type": "address"
        }
      ],
      "name": "OwnableUnauthorizedAccount",
      "type": "error"
    },
    {
      "anonymous": false,
      "inputs": [
        {
          "indexed": true,
          "internalType": "address",
          "name": "owner",
          "type": "address"
        },
        {
          "indexed": true,
          "internalType": "address",
          "name": "approved",
          "type": "address"
        },
        {
          "indexed": true,
          "internalType": "uint256",
          "name": "tokenId",
          "type": "uint256"
        }
      ],
      "name": "Approval",
      "type": "event"
    },
    {
      "anonymous": false,
      "inputs": [
        {
          "indexed": true,
          "internalType": "address",
          "name": "owner",
          "type": "address"
        },
        {
          "indexed": true,
          "internalType": "address",
          "name": "operator",
          "type": "address"
        },
        {
          "indexed": false,
          "internalType": "bool",
          "name": "approved",
          "type": "bool"
        }
      ],
      "name": "ApprovalForAll",
      "type": "event"
    },
    {
      "anonymous": false,
      "inputs": [
        {
          "indexed": true,
          "internalType": "address",
          "name": "previousOwner",
          "type": "address"
        },
        {
          "indexed": true,
          "internalType": "address",
          "name": "newOwner",
          "type": "address"
        }
      ],
      "name": "OwnershipTransferred",
      "type": "event"
    },
    {
      "anonymous": false,
      "inputs": [
        {
          "indexed": true,
          "internalType": "uint256",
          "name": "productId",
          "type": "uint256"
        },
        {
          "indexed": false,
          "internalType": "string",
          "name": "name",
          "type": "string"
        },
        {
          "indexed": false,
          "internalType": "uint256",
          "name": "price",
          "type": "uint256"
        }
      ],
      "name": "ProductCreated",
      "type": "event"
    },
    {
      "anonymous": false,
      "inputs": [
        {
          "indexed": true,
          "internalType": "uint256",
          "name": "productId",
          "type": "uint256"
        },
        {
          "indexed": false,
          "internalType": "address",
          "name": "buyer",
          "type": "address"
        }
      ],
      "name": "ProductPurchased",
      "type": "event"
    },
    {
      "anonymous": false,
      "inputs": [
        {
          "indexed": true,
          "internalType": "address",
          "name": "from",
          "type": "address"
        },
        {
          "indexed": true,
          "internalType": "address",
          "name": "to",
          "type": "address"
        },
        {
          "indexed": true,
          "internalType": "uint256",
          "name": "tokenId",
          "type": "uint256"
        }
      ],
      "name": "Transfer",
      "type": "event"
    },
    {
      "inputs": [
        {
          "internalType": "address",
          "name": "to",
          "type": "address"
        },
        {
          "internalType": "uint256",
          "name": "tokenId",
          "type": "uint256"
        }
      ],
      "name": "approve",
      "outputs": [],
      "stateMutability": "nonpayable",
      "type": "function"
    },
    {
      "inputs": [
        {
          "internalType": "address",
          "name": "owner",
          "type": "address"
        }
      ],
      "name": "balanceOf",
      "outputs": [
        {
          "internalType": "uint256",
          "name": "",
          "type": "uint256"
        }
      ],
      "stateMutability": "view",
      "type": "function"
    },
    {
      "inputs": [
        {
          "internalType": "string",
          "name": "name",
          "type": "string"
        },
        {
          "internalType": "string",
          "name": "description",
          "type": "string"
        },
        {
          "internalType": "uint256",
          "name": "price",
          "type": "uint256"
        },
        {
          "internalType": "string",
          "name": "imageURI",
          "type": "string"
        },
        {
          "internalType": "string",
          "name": "metadataURI",
          "type": "string"
        },
        {
          "internalType": "bool",
          "name": "isNFT",
          "type": "bool"
        }
      ],
      "name": "createProduct",
      "outputs": [
        {
          "internalType": "uint256",
          "name": "",
          "type": "uint256"
        }
      ],
      "stateMutability": "nonpayable",
      "type": "function"
    },
    {
      "inputs": [
        {
          "internalType": "uint256",
          "name": "tokenId",
          "type": "uint256"
        }
      ],
      "name": "getApproved",
      "outputs": [
        {
          "internalType": "address",
          "name": "",
          "type": "address"
        }
      ],
      "stateMutability": "view",
      "type": "function"
    },
    {
      "inputs": [
        {
          "internalType": "uint256",
          "name": "productId",
          "type": "uint256"
        }
      ],
      "name": "getProduct",
      "outputs": [
        {
          "components": [
            {
              "internalType": "uint256",
              "name": "id",
              "type": "uint256"
            },
            {
              "internalType": "string",
              "name": "name",
              "type": "string"
            },
            {
              "internalType": "string",
              "name": "description",
              "type": "string"
            },
            {
              "internalType": "uint256",
              "name": "price",
              "type": "uint256"
            },
            {
              "internalType": "string",
              "name": "imageURI",
              "type": "string"
            },
            {
              "internalType": "string",
              "name": "metadataURI",
              "type": "string"
            },
            {
              "internalType": "bool",
              "name": "isNFT",
              "type": "bool"
            },
            {
              "internalType": "address",
              "name": "owner",
              "type": "address"
            }
          ],
          "internalType": "struct FilStore.Product",
          "name": "",
          "type": "tuple"
        }
      ],
      "stateMutability": "view",
      "type": "function"
    },
    {
      "inputs": [
        {
          "internalType": "address",
          "name": "user",
          "type": "address"
        }
      ],
      "name": "getUserProducts",
      "outputs": [
        {
          "internalType": "uint256[]",
          "name": "",
          "type": "uint256[]"
        }
      ],
      "stateMutability": "view",
      "type": "function"
    },
    {
      "inputs": [
        {
          "internalType": "address",
          "name": "owner",
          "type": "address"
        },
        {
          "internalType": "address",
          "name": "operator",
          "type": "address"
        }
      ],
      "name": "isApprovedForAll",
      "outputs": [
        {
          "internalType": "bool",
          "name": "",
          "type": "bool"
        }
      ],
      "stateMutability": "view",
      "type": "function"
    },
    {
      "inputs": [],
      "name": "name",
      "outputs": [
        {
          "internalType": "string",
          "name": "",
          "type": "string"
        }
      ],
      "stateMutability": "view",
      "type": "function"
    },
    {
      "inputs": [],
      "name": "owner",
      "outputs": [
        {
          "internalType": "address",
          "name": "",
          "type": "address"
        }
      ],
      "stateMutability": "view",
      "type": "function"
    },
    {
      "inputs": [
        {
          "internalType": "uint256",
          "name": "tokenId",
          "type": "uint256"
        }
      ],
      "name": "ownerOf",
      "outputs": [
        {
          "internalType": "address",
          "name": "",
          "type": "address"
        }
      ],
      "stateMutability": "view",
      "type": "function"
    },
    {
      "inputs": [
        {
          "internalType": "uint256",
          "name": "",
          "type": "uint256"
        }
      ],
      "name": "products",
      "outputs": [
        {
          "internalType": "uint256",
          "name": "id",
          "type": "uint256"
        },
        {
          "internalType": "string",
          "name": "name",
          "type": "string"
        },
        {
          "internalType": "string",
          "name": "description",
          "type": "string"
        },
        {
          "internalType": "uint256",
          "name": "price",
          "type": "uint256"
        },
        {
          "internalType": "string",
          "name": "imageURI",
          "type": "string"
        },
        {
          "internalType": "string",
          "name": "metadataURI",
          "type": "string"
        },
        {
          "internalType": "bool",
          "name": "isNFT",
          "type": "bool"
        },
        {
          "internalType": "address",
          "name": "owner",
          "type": "address"
        }
      ],
      "stateMutability": "view",
      "type": "function"
    },
    {
      "inputs": [
        {
          "internalType": "uint256",
          "name": "productId",
          "type": "uint256"
        }
      ],
      "name": "purchaseProduct",
      "outputs": [],
      "stateMutability": "payable",
      "type": "function"
    },
    {
      "inputs": [],
      "name": "renounceOwnership",
      "outputs": [],
      "stateMutability": "nonpayable",
      "type": "function"
    },
    {
      "inputs": [
        {
          "internalType": "address",
          "name": "from",
          "type": "address"
        },
        {
          "internalType": "address",
          "name": "to",
          "type": "address"
        },
        {
          "internalType": "uint256",
          "name": "tokenId",
          "type": "uint256"
        }
      ],
      "name": "safeTransferFrom",
      "outputs": [],
      "stateMutability": "nonpayable",
      "type": "function"
    },
    {
      "inputs": [
        {
          "internalType": "address",
          "name": "from",
          "type": "address"
        },
        {
          "internalType": "address",
          "name": "to",
          "type": "address"
        },
        {
          "internalType": "uint256",
          "name": "tokenId",
          "type": "uint256"
        },
        {
          "internalType": "bytes",
          "name": "data",
          "type": "bytes"
        }
      ],
      "name": "safeTransferFrom",
      "outputs": [],
      "stateMutability": "nonpayable",
      "type": "function"
    },
    {
      "inputs": [
        {
          "internalType": "address",
          "name": "operator",
          "type": "address"
        },
        {
          "internalType": "bool",
          "name": "approved",
          "type": "bool"
        }
      ],
      "name": "setApprovalForAll",
      "outputs": [],
      "stateMutability": "nonpayable",
      "type": "function"
    },
    {
      "inputs": [
        {
          "internalType": "bytes4",
          "name": "interfaceId",
          "type": "bytes4"
        }
      ],
      "name": "supportsInterface",
      "outputs": [
        {
          "internalType": "bool",
          "name": "",
          "type": "bool"
        }
      ],
      "stateMutability": "view",
      "type": "function"
    },
    {
      "inputs": [],
      "name": "symbol",
      "outputs": [
        {
          "internalType": "string",
          "name": "",
          "type": "string"
        }
      ],
      "stateMutability": "view",
      "type": "function"
    },
    {
      "inputs": [
        {
          "internalType": "uint256",
          "name": "tokenId",
          "type": "uint256"
        }
      ],
      "name": "tokenURI",
      "outputs": [
        {
          "internalType": "string",
          "name": "",
          "type": "string"
        }
      ],
      "stateMutability": "view",
      "type": "function"
    },
    {
      "inputs": [
        {
          "internalType": "address",
          "name": "from",
          "type": "address"
        },
        {
          "internalType": "address",
          "name": "to",
          "type": "address"
        },
        {
          "internalType": "uint256",
          "name": "tokenId",
          "type": "uint256"
        }
      ],
      "name": "transferFrom",
      "outputs": [],
      "stateMutability": "nonpayable",
      "type": "function"
    },
    {
      "inputs": [
        {
          "internalType": "address",
          "name": "newOwner",
          "type": "address"
        }
      ],
      "name": "transferOwnership",
      "outputs": [],
      "stateMutability": "nonpayable",
      "type": "function"
    },
    {
      "inputs": [
        {
          "internalType": "address",
          "name": "",
          "type": "address"
        },
        {
          "internalType": "uint256",
          "name": "",
          "type": "uint256"
        }
      ],
      "name": "userProducts",
      "outputs": [
        {
          "internalType": "uint256",
          "name": "",
          "type": "uint256"
        }
      ],
      "stateMutability": "view",
      "type": "function"
    },
    {
      "inputs": [],
      "name": "withdraw",
      "outputs": [],
      "stateMutability": "nonpayable",
      "type": "function"
    }
  ],
  "bytecode": "0x60806040523480156200001157600080fd5b50604051620022fa380380620022fa83398101604081905262000034916200012e565b806040518060400160405280600881526020016746696c53746f726560c01b8152506040518060400160405280600881526020016746494c53544f524560c01b815250816000908162000088919062000205565b50600162000097828262000205565b5050506001600160a01b038116620000c957604051631e4fbdf760e01b81526000600482015260240160405180910390fd5b620000d481620000dc565b5050620002d1565b600680546001600160a01b038381166001600160a01b0319831681179093556040519116919082907f8be0079c531659141344cd1fd0a4f28419497f9722a3daafe3b4186f6b6457e090600090a35050565b6000602082840312156200014157600080fd5b81516001600160a01b03811681146200015957600080fd5b9392505050565b634e487b7160e01b600052604160045260246000fd5b600181811c908216806200018b57607f821691505b602082108103620001ac57634e487b7160e01b600052602260045260246000fd5b50919050565b601f8211156200020057600081815260208120601f850160051c81016020861015620001db5750805b601f850160051c820191505b81811015620001fc57828155600101620001e7565b5050505b505050565b81516001600160401b0381111562000221576200022162000160565b620002398162000232845462000176565b84620001b2565b602080601f831160018114620002715760008415620002585750858301515b600019600386901b1c1916600185901b178555620001fc565b600085815260208120601f198616915b82811015620002a25788860151825594840194600190910190840162000281565b5085821015620002c15787850151600019600388901b60f8161c191681555b5050505050600190811b01905550565b61201980620002e16000396000f3fe6080604052600436106101405760003560e01c8063715018a6116100b6578063b9db15b41161006f578063b9db15b414610388578063bf6f1137146103b5578063c87b56dd146103d5578063e985e9c5146103f5578063f2fde38b14610415578063fee7f53b1461043557600080fd5b8063715018a6146102cc5780637acc0b20146102e15780638da5cb5b1461031557806395d89b4114610333578063a22cb46514610348578063b88d4fde1461036857600080fd5b806338e76a031161010857806338e76a03146102165780633ccfd60b146102295780633d5278831461023e57806342842e0e1461026c5780636352211e1461028c57806370a08231146102ac57600080fd5b806301ffc9a71461014557806306fdde031461017a578063081812fc1461019c578063095ea7b3146101d457806323b872dd146101f6575b600080fd5b34801561015157600080fd5b506101656101603660046118ba565b610462565b60405190151581526020015b60405180910390f35b34801561018657600080fd5b5061018f6104b4565b6040516101719190611927565b3480156101a857600080fd5b506101bc6101b736600461193a565b610546565b6040516001600160a01b039091168152602001610171565b3480156101e057600080fd5b506101f46101ef36600461196f565b61056f565b005b34801561020257600080fd5b506101f4610211366004611999565b61057e565b6101f461022436600461193a565b61060e565b34801561023557600080fd5b506101f4610752565b34801561024a57600080fd5b5061025e61025936600461196f565b610796565b604051908152602001610171565b34801561027857600080fd5b506101f4610287366004611999565b6107c7565b34801561029857600080fd5b506101bc6102a736600461193a565b6107e7565b3480156102b857600080fd5b5061025e6102c73660046119d5565b6107f2565b3480156102d857600080fd5b506101f461083a565b3480156102ed57600080fd5b506103016102fc36600461193a565b61084e565b6040516101719897969594939291906119f0565b34801561032157600080fd5b506006546001600160a01b03166101bc565b34801561033f57600080fd5b5061018f610abd565b34801561035457600080fd5b506101f4610363366004611a82565b610acc565b34801561037457600080fd5b506101f4610383366004611b41565b610ad7565b34801561039457600080fd5b506103a86103a336600461193a565b610aef565b6040516101719190611bbd565b3480156103c157600080fd5b5061025e6103d0366004611c9d565b610de8565b3480156103e157600080fd5b5061018f6103f036600461193a565b610f50565b34801561040157600080fd5b50610165610410366004611d63565b610fc5565b34801561042157600080fd5b506101f46104303660046119d5565b610ff3565b34801561044157600080fd5b506104556104503660046119d5565b61102e565b6040516101719190611d8d565b60006001600160e01b031982166380ac58cd60e01b148061049357506001600160e01b03198216635b5e139f60e01b145b806104ae57506301ffc9a760e01b6001600160e01b03198316145b92915050565b6060600080546104c390611dd1565b80601f01602080910402602001604051908101604052809291908181526020018280546104ef90611dd1565b801561053c5780601f106105115761010080835404028352916020019161053c565b820191906000526020600020905b81548152906001019060200180831161051f57829003601f168201915b5050505050905090565b60006105518261109a565b506000828152600460205260409020546001600160a01b03166104ae565b61057a8282336110d3565b5050565b6001600160a01b0382166105ad57604051633250574960e11b8152600060048201526024015b60405180910390fd5b60006105ba8383336110e0565b9050836001600160a01b0316816001600160a01b031614610608576040516364283d7b60e01b81526001600160a01b03808616600483015260248201849052821660448201526064016105a4565b50505050565b6000818152600860205260409020600681015461010090046001600160a01b031630146106755760405162461bcd60e51b815260206004820152601560248201527450726f64756374206e6f7420617661696c61626c6560581b60448201526064016105a4565b80600301543410156106c05760405162461bcd60e51b8152602060048201526014602482015273125b9cdd59999a58da595b9d081c185e5b595b9d60621b60448201526064016105a4565b600681015460ff16156106d8576106d83033846111d9565b600681018054610100600160a81b031916336101008102919091179091556000818152600960209081526040808320805460018101825590845292829020909201859055905191825283917f9ad4ecfaf27ea0cbeebee0ed92fe15c8a84975f1e3d45ccfc526d7751dcf98ff910160405180910390a25050565b61075a611289565b6006546040516001600160a01b03909116904780156108fc02916000818181858888f19350505050158015610793573d6000803e3d6000fd5b50565b600960205281600052604060002081815481106107b257600080fd5b90600052602060002001600091509150505481565b6107e283838360405180602001604052806000815250610ad7565b505050565b60006104ae8261109a565b60006001600160a01b03821661081e576040516322718ad960e21b8152600060048201526024016105a4565b506001600160a01b031660009081526003602052604090205490565b610842611289565b61084c60006112b6565b565b6008602052600090815260409020805460018201805491929161087090611dd1565b80601f016020809104026020016040519081016040528092919081815260200182805461089c90611dd1565b80156108e95780601f106108be576101008083540402835291602001916108e9565b820191906000526020600020905b8154815290600101906020018083116108cc57829003601f168201915b5050505050908060020180546108fe90611dd1565b80601f016020809104026020016040519081016040528092919081815260200182805461092a90611dd1565b80156109775780601f1061094c57610100808354040283529160200191610977565b820191906000526020600020905b81548152906001019060200180831161095a57829003601f168201915b50505050509080600301549080600401805461099290611dd1565b80601f01602080910402602001604051908101604052809291908181526020018280546109be90611dd1565b8015610a0b5780601f106109e057610100808354040283529160200191610a0b565b820191906000526020600020905b8154815290600101906020018083116109ee57829003601f168201915b505050505090806005018054610a2090611dd1565b80601f0160208091040260200160405190810160405280929190818152602001828054610a4c90611dd1565b8015610a995780601f10610a6e57610100808354040283529160200191610a99565b820191906000526020600020905b815481529060010190602001808311610a7c57829003601f168201915b5050506006909301549192505060ff8116906001600160a01b036101009091041688565b6060600180546104c390611dd1565b61057a338383611308565b610ae284848461057e565b61060833858585856113a7565b610b4260405180610100016040528060008152602001606081526020016060815260200160008152602001606081526020016060815260200160001515815260200160006001600160a01b031681525090565b600860008381526020019081526020016000206040518061010001604052908160008201548152602001600182018054610b7b90611dd1565b80601f0160208091040260200160405190810160405280929190818152602001828054610ba790611dd1565b8015610bf45780601f10610bc957610100808354040283529160200191610bf4565b820191906000526020600020905b815481529060010190602001808311610bd757829003601f168201915b50505050508152602001600282018054610c0d90611dd1565b80601f0160208091040260200160405190810160405280929190818152602001828054610c3990611dd1565b8015610c865780601f10610c5b57610100808354040283529160200191610c86565b820191906000526020600020905b815481529060010190602001808311610c6957829003601f168201915b5050505050815260200160038201548152602001600482018054610ca990611dd1565b80601f0160208091040260200160405190810160405280929190818152602001828054610cd590611dd1565b8015610d225780601f10610cf757610100808354040283529160200191610d22565b820191906000526020600020905b815481529060010190602001808311610d0557829003601f168201915b50505050508152602001600582018054610d3b90611dd1565b80601f0160208091040260200160405190810160405280929190818152602001828054610d6790611dd1565b8015610db45780601f10610d8957610100808354040283529160200191610db4565b820191906000526020600020905b815481529060010190602001808311610d9757829003601f168201915b50505091835250506006919091015460ff81161515602083015261010090046001600160a01b031660409091015292915050565b6000610df2611289565b60078054906000610e0283611e0b565b9091555050600754604080516101008101825282815260208082018b81528284018b9052606083018a90526080830189905260a0830188905286151560c08401523060e0840152600085815260089092529290208151815591519091906001820190610e6e9082611e78565b5060408201516002820190610e839082611e78565b506060820151600382015560808201516004820190610ea29082611e78565b5060a08201516005820190610eb79082611e78565b5060c08201516006909101805460e0909301516001600160a01b031661010002610100600160a81b0319921515929092166001600160a81b0319909316929092171790558215610f0b57610f0b30826114d2565b807f418d4005ee80a6584eef7f51de08850f7f79c3e7b464f15ef3f236423d964b088988604051610f3d929190611f38565b60405180910390a2979650505050505050565b6060610f5b8261109a565b506000610f7360408051602081019091526000815290565b90506000815111610f935760405180602001604052806000815250610fbe565b80610f9d846114ec565b604051602001610fae929190611f5a565b6040516020818303038152906040525b9392505050565b6001600160a01b03918216600090815260056020908152604080832093909416825291909152205460ff1690565b610ffb611289565b6001600160a01b03811661102557604051631e4fbdf760e01b8152600060048201526024016105a4565b610793816112b6565b6001600160a01b03811660009081526009602090815260409182902080548351818402810184019094528084526060939283018282801561108e57602002820191906000526020600020905b81548152602001906001019080831161107a575b50505050509050919050565b6000818152600260205260408120546001600160a01b0316806104ae57604051637e27328960e01b8152600481018490526024016105a4565b6107e2838383600161157f565b6000828152600260205260408120546001600160a01b039081169083161561110d5761110d818486611685565b6001600160a01b0381161561114b5761112a60008560008061157f565b6001600160a01b038116600090815260036020526040902080546000190190555b6001600160a01b0385161561117a576001600160a01b0385166000908152600360205260409020805460010190555b60008481526002602052604080822080546001600160a01b0319166001600160a01b0389811691821790925591518793918516917fddf252ad1be2c89b69c2b068fc378daa952ba7f163c4a11628f55a4df523b3ef91a4949350505050565b6001600160a01b03821661120357604051633250574960e11b8152600060048201526024016105a4565b6000611211838360006110e0565b90506001600160a01b03811661123d57604051637e27328960e01b8152600481018390526024016105a4565b836001600160a01b0316816001600160a01b031614610608576040516364283d7b60e01b81526001600160a01b03808616600483015260248201849052821660448201526064016105a4565b6006546001600160a01b0316331461084c5760405163118cdaa760e01b81523360048201526024016105a4565b600680546001600160a01b038381166001600160a01b0319831681179093556040519116919082907f8be0079c531659141344cd1fd0a4f28419497f9722a3daafe3b4186f6b6457e090600090a35050565b6001600160a01b03821661133a57604051630b61174360e31b81526001600160a01b03831660048201526024016105a4565b6001600160a01b03838116600081815260056020908152604080832094871680845294825291829020805460ff191686151590811790915591519182527f17307eab39ab6107e8899845ad3d59bd9653f200f220920489ca2b5937696c31910160405180910390a3505050565b6001600160a01b0383163b156114cb57604051630a85bd0160e11b81526001600160a01b0384169063150b7a02906113e9908890889087908790600401611f89565b6020604051808303816000875af1925050508015611424575060408051601f3d908101601f1916820190925261142191810190611fc6565b60015b61148d573d808015611452576040519150601f19603f3d011682016040523d82523d6000602084013e611457565b606091505b50805160000361148557604051633250574960e11b81526001600160a01b03851660048201526024016105a4565b805181602001fd5b6001600160e01b03198116630a85bd0160e11b146114c957604051633250574960e11b81526001600160a01b03851660048201526024016105a4565b505b5050505050565b61057a8282604051806020016040528060008152506116e9565b606060006114f983611701565b600101905060008167ffffffffffffffff81111561151957611519611ab5565b6040519080825280601f01601f191660200182016040528015611543576020820181803683370190505b5090508181016020015b600019016f181899199a1a9b1b9c1cb0b131b232b360811b600a86061a8153600a850494508461154d57509392505050565b808061159357506001600160a01b03821615155b156116555760006115a38461109a565b90506001600160a01b038316158015906115cf5750826001600160a01b0316816001600160a01b031614155b80156115e257506115e08184610fc5565b155b1561160b5760405163a9fbf51f60e01b81526001600160a01b03841660048201526024016105a4565b81156116535783856001600160a01b0316826001600160a01b03167f8c5be1e5ebec7d5bd14f71427d1e84f3dd0314c0f7b2291e5b200ac8c7c3b92560405160405180910390a45b505b5050600090815260046020526040902080546001600160a01b0319166001600160a01b0392909216919091179055565b6116908383836117d9565b6107e2576001600160a01b0383166116be57604051637e27328960e01b8152600481018290526024016105a4565b60405163177e802f60e01b81526001600160a01b0383166004820152602481018290526044016105a4565b6116f3838361183f565b6107e23360008585856113a7565b60008072184f03e93ff9f4daa797ed6e38ed64bf6a1f0160401b83106117405772184f03e93ff9f4daa797ed6e38ed64bf6a1f0160401b830492506040015b6d04ee2d6d415b85acef8100000000831061176c576d04ee2d6d415b85acef8100000000830492506020015b662386f26fc10000831061178a57662386f26fc10000830492506010015b6305f5e10083106117a2576305f5e100830492506008015b61271083106117b657612710830492506004015b606483106117c8576064830492506002015b600a83106104ae5760010192915050565b60006001600160a01b038316158015906118375750826001600160a01b0316846001600160a01b0316148061181357506118138484610fc5565b8061183757506000828152600460205260409020546001600160a01b038481169116145b949350505050565b6001600160a01b03821661186957604051633250574960e11b8152600060048201526024016105a4565b6000611877838360006110e0565b90506001600160a01b038116156107e2576040516339e3563760e11b8152600060048201526024016105a4565b6001600160e01b03198116811461079357600080fd5b6000602082840312156118cc57600080fd5b8135610fbe816118a4565b60005b838110156118f25781810151838201526020016118da565b50506000910152565b600081518084526119138160208601602086016118d7565b601f01601f19169290920160200192915050565b602081526000610fbe60208301846118fb565b60006020828403121561194c57600080fd5b5035919050565b80356001600160a01b038116811461196a57600080fd5b919050565b6000806040838503121561198257600080fd5b61198b83611953565b946020939093013593505050565b6000806000606084860312156119ae57600080fd5b6119b784611953565b92506119c560208501611953565b9150604084013590509250925092565b6000602082840312156119e757600080fd5b610fbe82611953565b60006101008a8352806020840152611a0a8184018b6118fb565b90508281036040840152611a1e818a6118fb565b90508760608401528281036080840152611a3881886118fb565b905082810360a0840152611a4c81876118fb565b94151560c084015250506001600160a01b039190911660e0909101529695505050505050565b8035801515811461196a57600080fd5b60008060408385031215611a9557600080fd5b611a9e83611953565b9150611aac60208401611a72565b90509250929050565b634e487b7160e01b600052604160045260246000fd5b600067ffffffffffffffff80841115611ae657611ae6611ab5565b604051601f8501601f19908116603f01168101908282118183101715611b0e57611b0e611ab5565b81604052809350858152868686011115611b2757600080fd5b858560208301376000602087830101525050509392505050565b60008060008060808587031215611b5757600080fd5b611b6085611953565b9350611b6e60208601611953565b925060408501359150606085013567ffffffffffffffff811115611b9157600080fd5b8501601f81018713611ba257600080fd5b611bb187823560208401611acb565b91505092959194509250565b602081528151602082015260006020830151610100806040850152611be66101208501836118fb565b91506040850151601f1980868503016060870152611c0484836118fb565b93506060870151608087015260808701519150808685030160a0870152611c2b84836118fb565b935060a08701519150808685030160c087015250611c4983826118fb565b92505060c0850151611c5f60e086018215159052565b5060e08501516001600160a01b038116858301525090949350505050565b600082601f830112611c8e57600080fd5b610fbe83833560208501611acb565b60008060008060008060c08789031215611cb657600080fd5b863567ffffffffffffffff80821115611cce57600080fd5b611cda8a838b01611c7d565b97506020890135915080821115611cf057600080fd5b611cfc8a838b01611c7d565b9650604089013595506060890135915080821115611d1957600080fd5b611d258a838b01611c7d565b94506080890135915080821115611d3b57600080fd5b50611d4889828a01611c7d565b925050611d5760a08801611a72565b90509295509295509295565b60008060408385031215611d7657600080fd5b611d7f83611953565b9150611aac60208401611953565b6020808252825182820181905260009190848201906040850190845b81811015611dc557835183529284019291840191600101611da9565b50909695505050505050565b600181811c90821680611de557607f821691505b602082108103611e0557634e487b7160e01b600052602260045260246000fd5b50919050565b600060018201611e2b57634e487b7160e01b600052601160045260246000fd5b5060010190565b601f8211156107e257600081815260208120601f850160051c81016020861015611e595750805b601f850160051c820191505b818110156114c957828155600101611e65565b815167ffffffffffffffff811115611e9257611e92611ab5565b611ea681611ea08454611dd1565b84611e32565b602080601f831160018114611edb5760008415611ec35750858301515b600019600386901b1c1916600185901b1785556114c9565b600085815260208120601f198616915b82811015611f0a57888601518255948401946001909101908401611eeb565b5085821015611f285787850151600019600388901b60f8161c191681555b5050505050600190811b01905550565b604081526000611f4b60408301856118fb565b90508260208301529392505050565b60008351611f6c8184602088016118d7565b835190830190611f808183602088016118d7565b01949350505050565b6001600160a01b0385811682528416602082015260408101839052608060608201819052600090611fbc908301846118fb565b9695505050505050565b600060208284031215611fd857600080fd5b8151610fbe816118a456fea26469706673582212202e22b086312271f2170b003be2363e19d96cf743be4abe754e75ec8e606f3afc64736f6c63430008140033",
  "linkReferences": {},
  "deployedLinkReferences": {}
}